:020000040000FA
:040000009CEF3FF042
:107F38000001D9EF3FF001500302F3CF05F0F4CF71
:107F480006F001500402F350062602500302F350D3
:107F5800062605C001F006C002F0120007C001F0B5
:107F680008C002F0270E046E100E036E9FEC3FF05F
:107F780001C009F002C00AF0000E0C6E000E0B6E74
:107F8800CDEF3FF01D0E246F242FFED700F00B4AD3
:107F98000C2A09500B5C0A500C58D8A0D6EF3FF0B9
:107FA800D8EF3FF0C6EF3FF01200000E936E000EC0
:107FB800816E000E0E6E010E0D6E0DC081FFD89001
:107FC8000D340D6E0E340E6E100E0D180E10D8A452
:107FD800F0EF3FF0F2EF3FF0F6EF3FF0000E0E6EDD
:107FE800010E0D6E000E086E010E076EB2EC3FF02A
:087FF800E1EF3FF000EF00F0A3
:020000040020DA
:08000000FFFFFFFFFFFFFFFF00
:020000040030CA
:0E000000FF011F1EFF8381FF0FC00FE00F40A6
:00000001FF
